{
  "_format": "hh-sol-artifact-1",
  "contractName": "E1CommunityToken",
  "sourceName": "contracts/E1CommunityToken.sol",
  "abi": [
    {
      "inputs": [
        {
          "internalType": "string",
          "name": "_name",
          "type": "string"
        },
        {
          "internalType": "string",
          "name": "_symbol",
          "type": "string"
        },
        {
          "internalType": "string",
          "name": "_initBaseURI",
          "type": "string"
        }
      ],
      "stateMutability": "nonpayable",
      "type": "constructor"
    },
    {
      "anonymous": false,
      "inputs": [
        {
          "indexed": true,
          "internalType": "address",
          "name": "owner",
          "type": "address"
        },
        {
          "indexed": true,
          "internalType": "address",
          "name": "approved",
          "type": "address"
        },
        {
          "indexed": true,
          "internalType": "uint256",
          "name": "tokenId",
          "type": "uint256"
        }
      ],
      "name": "Approval",
      "type": "event"
    },
    {
      "anonymous": false,
      "inputs": [
        {
          "indexed": true,
          "internalType": "address",
          "name": "owner",
          "type": "address"
        },
        {
          "indexed": true,
          "internalType": "address",
          "name": "operator",
          "type": "address"
        },
        {
          "indexed": false,
          "internalType": "bool",
          "name": "approved",
          "type": "bool"
        }
      ],
      "name": "ApprovalForAll",
      "type": "event"
    },
    {
      "anonymous": false,
      "inputs": [
        {
          "indexed": true,
          "internalType": "address",
          "name": "previousOwner",
          "type": "address"
        },
        {
          "indexed": true,
          "internalType": "address",
          "name": "newOwner",
          "type": "address"
        }
      ],
      "name": "OwnershipTransferred",
      "type": "event"
    },
    {
      "anonymous": false,
      "inputs": [
        {
          "indexed": true,
          "internalType": "address",
          "name": "from",
          "type": "address"
        },
        {
          "indexed": true,
          "internalType": "address",
          "name": "to",
          "type": "address"
        },
        {
          "indexed": true,
          "internalType": "uint256",
          "name": "tokenId",
          "type": "uint256"
        }
      ],
      "name": "Transfer",
      "type": "event"
    },
    {
      "inputs": [
        {
          "internalType": "address",
          "name": "to",
          "type": "address"
        },
        {
          "internalType": "uint256",
          "name": "tokenId",
          "type": "uint256"
        }
      ],
      "name": "approve",
      "outputs": [],
      "stateMutability": "nonpayable",
      "type": "function"
    },
    {
      "inputs": [
        {
          "internalType": "address",
          "name": "owner",
          "type": "address"
        }
      ],
      "name": "balanceOf",
      "outputs": [
        {
          "internalType": "uint256",
          "name": "",
          "type": "uint256"
        }
      ],
      "stateMutability": "view",
      "type": "function"
    },
    {
      "inputs": [],
      "name": "baseExtension",
      "outputs": [
        {
          "internalType": "string",
          "name": "",
          "type": "string"
        }
      ],
      "stateMutability": "view",
      "type": "function"
    },
    {
      "inputs": [],
      "name": "cost",
      "outputs": [
        {
          "internalType": "uint256",
          "name": "",
          "type": "uint256"
        }
      ],
      "stateMutability": "view",
      "type": "function"
    },
    {
      "inputs": [
        {
          "internalType": "uint256",
          "name": "tokenId",
          "type": "uint256"
        }
      ],
      "name": "getApproved",
      "outputs": [
        {
          "internalType": "address",
          "name": "",
          "type": "address"
        }
      ],
      "stateMutability": "view",
      "type": "function"
    },
    {
      "inputs": [
        {
          "internalType": "address",
          "name": "owner",
          "type": "address"
        },
        {
          "internalType": "address",
          "name": "operator",
          "type": "address"
        }
      ],
      "name": "isApprovedForAll",
      "outputs": [
        {
          "internalType": "bool",
          "name": "",
          "type": "bool"
        }
      ],
      "stateMutability": "view",
      "type": "function"
    },
    {
      "inputs": [],
      "name": "maxMintAmount",
      "outputs": [
        {
          "internalType": "uint256",
          "name": "",
          "type": "uint256"
        }
      ],
      "stateMutability": "view",
      "type": "function"
    },
    {
      "inputs": [],
      "name": "maxSupply",
      "outputs": [
        {
          "internalType": "uint256",
          "name": "",
          "type": "uint256"
        }
      ],
      "stateMutability": "view",
      "type": "function"
    },
    {
      "inputs": [
        {
          "internalType": "uint256",
          "name": "_mintAmount",
          "type": "uint256"
        }
      ],
      "name": "mint",
      "outputs": [],
      "stateMutability": "payable",
      "type": "function"
    },
    {
      "inputs": [],
      "name": "name",
      "outputs": [
        {
          "internalType": "string",
          "name": "",
          "type": "string"
        }
      ],
      "stateMutability": "view",
      "type": "function"
    },
    {
      "inputs": [],
      "name": "owner",
      "outputs": [
        {
          "internalType": "address",
          "name": "",
          "type": "address"
        }
      ],
      "stateMutability": "view",
      "type": "function"
    },
    {
      "inputs": [
        {
          "internalType": "uint256",
          "name": "tokenId",
          "type": "uint256"
        }
      ],
      "name": "ownerOf",
      "outputs": [
        {
          "internalType": "address",
          "name": "",
          "type": "address"
        }
      ],
      "stateMutability": "view",
      "type": "function"
    },
    {
      "inputs": [
        {
          "internalType": "bool",
          "name": "_state",
          "type": "bool"
        }
      ],
      "name": "pause",
      "outputs": [],
      "stateMutability": "nonpayable",
      "type": "function"
    },
    {
      "inputs": [],
      "name": "paused",
      "outputs": [
        {
          "internalType": "bool",
          "name": "",
          "type": "bool"
        }
      ],
      "stateMutability": "view",
      "type": "function"
    },
    {
      "inputs": [],
      "name": "renounceOwnership",
      "outputs": [],
      "stateMutability": "nonpayable",
      "type": "function"
    },
    {
      "inputs": [
        {
          "internalType": "address",
          "name": "from",
          "type": "address"
        },
        {
          "internalType": "address",
          "name": "to",
          "type": "address"
        },
        {
          "internalType": "uint256",
          "name": "tokenId",
          "type": "uint256"
        }
      ],
      "name": "safeTransferFrom",
      "outputs": [],
      "stateMutability": "nonpayable",
      "type": "function"
    },
    {
      "inputs": [
        {
          "internalType": "address",
          "name": "from",
          "type": "address"
        },
        {
          "internalType": "address",
          "name": "to",
          "type": "address"
        },
        {
          "internalType": "uint256",
          "name": "tokenId",
          "type": "uint256"
        },
        {
          "internalType": "bytes",
          "name": "_data",
          "type": "bytes"
        }
      ],
      "name": "safeTransferFrom",
      "outputs": [],
      "stateMutability": "nonpayable",
      "type": "function"
    },
    {
      "inputs": [
        {
          "internalType": "address",
          "name": "operator",
          "type": "address"
        },
        {
          "internalType": "bool",
          "name": "approved",
          "type": "bool"
        }
      ],
      "name": "setApprovalForAll",
      "outputs": [],
      "stateMutability": "nonpayable",
      "type": "function"
    },
    {
      "inputs": [
        {
          "internalType": "string",
          "name": "_newBaseExtension",
          "type": "string"
        }
      ],
      "name": "setBaseExtension",
      "outputs": [],
      "stateMutability": "nonpayable",
      "type": "function"
    },
    {
      "inputs": [
        {
          "internalType": "string",
          "name": "_newBaseURI",
          "type": "string"
        }
      ],
      "name": "setBaseURI",
      "outputs": [],
      "stateMutability": "nonpayable",
      "type": "function"
    },
    {
      "inputs": [
        {
          "internalType": "uint256",
          "name": "_newCost",
          "type": "uint256"
        }
      ],
      "name": "setCost",
      "outputs": [],
      "stateMutability": "nonpayable",
      "type": "function"
    },
    {
      "inputs": [
        {
          "internalType": "uint256",
          "name": "_newmaxMintAmount",
          "type": "uint256"
        }
      ],
      "name": "setmaxMintAmount",
      "outputs": [],
      "stateMutability": "nonpayable",
      "type": "function"
    },
    {
      "inputs": [
        {
          "internalType": "bytes4",
          "name": "interfaceId",
          "type": "bytes4"
        }
      ],
      "name": "supportsInterface",
      "outputs": [
        {
          "internalType": "bool",
          "name": "",
          "type": "bool"
        }
      ],
      "stateMutability": "view",
      "type": "function"
    },
    {
      "inputs": [],
      "name": "symbol",
      "outputs": [
        {
          "internalType": "string",
          "name": "",
          "type": "string"
        }
      ],
      "stateMutability": "view",
      "type": "function"
    },
    {
      "inputs": [
        {
          "internalType": "uint256",
          "name": "index",
          "type": "uint256"
        }
      ],
      "name": "tokenByIndex",
      "outputs": [
        {
          "internalType": "uint256",
          "name": "",
          "type": "uint256"
        }
      ],
      "stateMutability": "view",
      "type": "function"
    },
    {
      "inputs": [
        {
          "internalType": "address",
          "name": "owner",
          "type": "address"
        },
        {
          "internalType": "uint256",
          "name": "index",
          "type": "uint256"
        }
      ],
      "name": "tokenOfOwnerByIndex",
      "outputs": [
        {
          "internalType": "uint256",
          "name": "",
          "type": "uint256"
        }
      ],
      "stateMutability": "view",
      "type": "function"
    },
    {
      "inputs": [
        {
          "internalType": "uint256",
          "name": "tokenId",
          "type": "uint256"
        }
      ],
      "name": "tokenURI",
      "outputs": [
        {
          "internalType": "string",
          "name": "",
          "type": "string"
        }
      ],
      "stateMutability": "view",
      "type": "function"
    },
    {
      "inputs": [],
      "name": "totalSupply",
      "outputs": [
        {
          "internalType": "uint256",
          "name": "",
          "type": "uint256"
        }
      ],
      "stateMutability": "view",
      "type": "function"
    },
    {
      "inputs": [
        {
          "internalType": "address",
          "name": "from",
          "type": "address"
        },
        {
          "internalType": "address",
          "name": "to",
          "type": "address"
        },
        {
          "internalType": "uint256",
          "name": "tokenId",
          "type": "uint256"
        }
      ],
      "name": "transferFrom",
      "outputs": [],
      "stateMutability": "nonpayable",
      "type": "function"
    },
    {
      "inputs": [
        {
          "internalType": "address",
          "name": "newOwner",
          "type": "address"
        }
      ],
      "name": "transferOwnership",
      "outputs": [],
      "stateMutability": "nonpayable",
      "type": "function"
    },
    {
      "inputs": [
        {
          "internalType": "address",
          "name": "_owner",
          "type": "address"
        }
      ],
      "name": "walletOfOwner",
      "outputs": [
        {
          "internalType": "uint256[]",
          "name": "",
          "type": "uint256[]"
        }
      ],
      "stateMutability": "view",
      "type": "function"
    },
    {
      "inputs": [],
      "name": "withdraw",
      "outputs": [],
      "stateMutability": "payable",
      "type": "function"
    }
  ],
  "bytecode": "0x60a06040819052600060808190526200001b91600c9162000197565b506402540be400600d556001600e819055600f556010805460ff191690553480156200004657600080fd5b5060405162002676380380620026768339810160408190526200006991620002f0565b8251839083906200008290600090602085019062000197565b5080516200009890600190602084019062000197565b505050620000b5620000af620000c960201b60201c565b620000cd565b620000c0816200011f565b505050620003d0565b3390565b600a80546001600160a01b038381166001600160a01b0319831681179093556040519116919082907f8be0079c531659141344cd1fd0a4f28419497f9722a3daafe3b4186f6b6457e090600090a35050565b600a546001600160a01b031633146200017e5760405162461bcd60e51b815260206004820181905260248201527f4f776e61626c653a2063616c6c6572206973206e6f7420746865206f776e6572604482015260640160405180910390fd5b80516200019390600b90602084019062000197565b5050565b828054620001a5906200037d565b90600052602060002090601f016020900481019282620001c9576000855562000214565b82601f10620001e457805160ff191683800117855562000214565b8280016001018555821562000214579182015b8281111562000214578251825591602001919060010190620001f7565b506200022292915062000226565b5090565b5b8082111562000222576000815560010162000227565b600082601f8301126200024e578081fd5b81516001600160401b03808211156200026b576200026b620003ba565b604051601f8301601f19908116603f01168101908282118183101715620002965762000296620003ba565b81604052838152602092508683858801011115620002b2578485fd5b8491505b83821015620002d55785820183015181830184015290820190620002b6565b83821115620002e657848385830101525b9695505050505050565b60008060006060848603121562000305578283fd5b83516001600160401b03808211156200031c578485fd5b6200032a878388016200023d565b9450602086015191508082111562000340578384fd5b6200034e878388016200023d565b9350604086015191508082111562000364578283fd5b5062000373868287016200023d565b9150509250925092565b600181811c908216806200039257607f821691505b60208210811415620003b457634e487b7160e01b600052602260045260246000fd5b50919050565b634e487b7160e01b600052604160045260246000fd5b61229680620003e06000396000f3fe6080604052600436106101e35760003560e01c80635c975abb11610102578063a22cb46511610095578063d5abeb0111610064578063d5abeb0114610547578063da3ef23f1461055d578063e985e9c51461057d578063f2fde38b146105c657600080fd5b8063a22cb465146104d2578063b88d4fde146104f2578063c668286214610512578063c87b56dd1461052757600080fd5b80637f00c7a6116100d15780637f00c7a61461046c5780638da5cb5b1461048c57806395d89b41146104aa578063a0712d68146104bf57600080fd5b80635c975abb146103fd5780636352211e1461041757806370a0823114610437578063715018a61461045757600080fd5b806323b872dd1161017a578063438b630011610149578063438b63001461037057806344a0d68a1461039d5780634f6ccce7146103bd57806355f804b3146103dd57600080fd5b806323b872dd146103085780632f745c59146103285780633ccfd60b1461034857806342842e0e1461035057600080fd5b8063095ea7b3116101b6578063095ea7b31461029957806313faede6146102b957806318160ddd146102dd578063239c70ae146102f257600080fd5b806301ffc9a7146101e857806302329a291461021d57806306fdde031461023f578063081812fc14610261575b600080fd5b3480156101f457600080fd5b50610208610203366004611e20565b6105e6565b60405190151581526020015b60405180910390f35b34801561022957600080fd5b5061023d610238366004611e06565b610611565b005b34801561024b57600080fd5b50610254610657565b6040516102149190612025565b34801561026d57600080fd5b5061028161027c366004611e9e565b6106e9565b6040516001600160a01b039091168152602001610214565b3480156102a557600080fd5b5061023d6102b4366004611ddd565b61077e565b3480156102c557600080fd5b506102cf600d5481565b604051908152602001610214565b3480156102e957600080fd5b506008546102cf565b3480156102fe57600080fd5b506102cf600f5481565b34801561031457600080fd5b5061023d610323366004611d00565b610894565b34801561033457600080fd5b506102cf610343366004611ddd565b6108c5565b61023d61095b565b34801561035c57600080fd5b5061023d61036b366004611d00565b6109f9565b34801561037c57600080fd5b5061039061038b366004611cb4565b610a14565b6040516102149190611fe1565b3480156103a957600080fd5b5061023d6103b8366004611e9e565b610ad2565b3480156103c957600080fd5b506102cf6103d8366004611e9e565b610b01565b3480156103e957600080fd5b5061023d6103f8366004611e58565b610ba2565b34801561040957600080fd5b506010546102089060ff1681565b34801561042357600080fd5b50610281610432366004611e9e565b610be3565b34801561044357600080fd5b506102cf610452366004611cb4565b610c5a565b34801561046357600080fd5b5061023d610ce1565b34801561047857600080fd5b5061023d610487366004611e9e565b610d17565b34801561049857600080fd5b50600a546001600160a01b0316610281565b3480156104b657600080fd5b50610254610d46565b61023d6104cd366004611e9e565b610d55565b3480156104de57600080fd5b5061023d6104ed366004611db4565b610e02565b3480156104fe57600080fd5b5061023d61050d366004611d3b565b610e0d565b34801561051e57600080fd5b50610254610e45565b34801561053357600080fd5b50610254610542366004611e9e565b610ed3565b34801561055357600080fd5b506102cf600e5481565b34801561056957600080fd5b5061023d610578366004611e58565b610fb1565b34801561058957600080fd5b50610208610598366004611cce565b6001600160a01b03918216600090815260056020908152604080832093909416825291909152205460ff1690565b3480156105d257600080fd5b5061023d6105e1366004611cb4565b610fee565b60006001600160e01b0319821663780e9d6360e01b148061060b575061060b82611086565b92915050565b600a546001600160a01b031633146106445760405162461bcd60e51b815260040161063b9061208a565b60405180910390fd5b6010805460ff1916911515919091179055565b6060600080546106669061219e565b80601f01602080910402602001604051908101604052809291908181526020018280546106929061219e565b80156106df5780601f106106b4576101008083540402835291602001916106df565b820191906000526020600020905b8154815290600101906020018083116106c257829003601f168201915b5050505050905090565b6000818152600260205260408120546001600160a01b03166107625760405162461bcd60e51b815260206004820152602c60248201527f4552433732313a20617070726f76656420717565727920666f72206e6f6e657860448201526b34b9ba32b73a103a37b5b2b760a11b606482015260840161063b565b506000908152600460205260409020546001600160a01b031690565b600061078982610be3565b9050806001600160a01b0316836001600160a01b031614156107f75760405162461bcd60e51b815260206004820152602160248201527f4552433732313a20617070726f76616c20746f2063757272656e74206f776e656044820152603960f91b606482015260840161063b565b336001600160a01b038216148061081357506108138133610598565b6108855760405162461bcd60e51b815260206004820152603860248201527f4552433732313a20617070726f76652063616c6c6572206973206e6f74206f7760448201527f6e6572206e6f7220617070726f76656420666f7220616c6c0000000000000000606482015260840161063b565b61088f83836110d6565b505050565b61089e3382611144565b6108ba5760405162461bcd60e51b815260040161063b906120bf565b61088f83838361123b565b60006108d083610c5a565b82106109325760405162461bcd60e51b815260206004820152602b60248201527f455243373231456e756d657261626c653a206f776e657220696e646578206f7560448201526a74206f6620626f756e647360a81b606482015260840161063b565b506001600160a01b03919091166000908152600660209081526040808320938352929052205490565b600a546001600160a01b031633146109855760405162461bcd60e51b815260040161063b9061208a565b6000610999600a546001600160a01b031690565b6001600160a01b03164760405160006040518083038185875af1925050503d80600081146109e3576040519150601f19603f3d011682016040523d82523d6000602084013e6109e8565b606091505b50509050806109f657600080fd5b50565b61088f83838360405180602001604052806000815250610e0d565b60606000610a2183610c5a565b905060008167ffffffffffffffff811115610a4c57634e487b7160e01b600052604160045260246000fd5b604051908082528060200260200182016040528015610a75578160200160208202803683370190505b50905060005b82811015610aca57610a8d85826108c5565b828281518110610aad57634e487b7160e01b600052603260045260246000fd5b602090810291909101015280610ac2816121d9565b915050610a7b565b509392505050565b600a546001600160a01b03163314610afc5760405162461bcd60e51b815260040161063b9061208a565b600d55565b6000610b0c60085490565b8210610b6f5760405162461bcd60e51b815260206004820152602c60248201527f455243373231456e756d657261626c653a20676c6f62616c20696e646578206f60448201526b7574206f6620626f756e647360a01b606482015260840161063b565b60088281548110610b9057634e487b7160e01b600052603260045260246000fd5b90600052602060002001549050919050565b600a546001600160a01b03163314610bcc5760405162461bcd60e51b815260040161063b9061208a565b8051610bdf90600b906020840190611b79565b5050565b6000818152600260205260408120546001600160a01b03168061060b5760405162461bcd60e51b815260206004820152602960248201527f4552433732313a206f776e657220717565727920666f72206e6f6e657869737460448201526832b73a103a37b5b2b760b91b606482015260840161063b565b60006001600160a01b038216610cc55760405162461bcd60e51b815260206004820152602a60248201527f4552433732313a2062616c616e636520717565727920666f7220746865207a65604482015269726f206164647265737360b01b606482015260840161063b565b506001600160a01b031660009081526003602052604090205490565b600a546001600160a01b03163314610d0b5760405162461bcd60e51b815260040161063b9061208a565b610d1560006113e2565b565b600a546001600160a01b03163314610d415760405162461bcd60e51b815260040161063b9061208a565b600f55565b6060600180546106669061219e565b6000610d6060085490565b60105490915060ff1615610d7357600080fd5b60008211610d8057600080fd5b600f54821115610d8f57600080fd5b600e54610d9c8383612110565b1115610da757600080fd5b600a546001600160a01b03163314610dd35781600d54610dc7919061213c565b341015610dd357600080fd5b60015b82811161088f57610df033610deb8385612110565b611434565b80610dfa816121d9565b915050610dd6565b610bdf33838361144e565b610e173383611144565b610e335760405162461bcd60e51b815260040161063b906120bf565b610e3f8484848461151d565b50505050565b600c8054610e529061219e565b80601f0160208091040260200160405190810160405280929190818152602001828054610e7e9061219e565b8015610ecb5780601f10610ea057610100808354040283529160200191610ecb565b820191906000526020600020905b815481529060010190602001808311610eae57829003601f168201915b505050505081565b6000818152600260205260409020546060906001600160a01b0316610f525760405162461bcd60e51b815260206004820152602f60248201527f4552433732314d657461646174613a2055524920717565727920666f72206e6f60448201526e3732bc34b9ba32b73a103a37b5b2b760891b606482015260840161063b565b6000610f5c611550565b90506000815111610f7c5760405180602001604052806000815250610faa565b80610f868461155f565b600c604051602001610f9a93929190611ee2565b6040516020818303038152906040525b9392505050565b600a546001600160a01b03163314610fdb5760405162461bcd60e51b815260040161063b9061208a565b8051610bdf90600c906020840190611b79565b600a546001600160a01b031633146110185760405162461bcd60e51b815260040161063b9061208a565b6001600160a01b03811661107d5760405162461bcd60e51b815260206004820152602660248201527f4f776e61626c653a206e6577206f776e657220697320746865207a65726f206160448201526564647265737360d01b606482015260840161063b565b6109f6816113e2565b60006001600160e01b031982166380ac58cd60e01b14806110b757506001600160e01b03198216635b5e139f60e01b145b8061060b57506301ffc9a760e01b6001600160e01b031983161461060b565b600081815260046020526040902080546001600160a01b0319166001600160a01b038416908117909155819061110b82610be3565b6001600160a01b03167f8c5be1e5ebec7d5bd14f71427d1e84f3dd0314c0f7b2291e5b200ac8c7c3b92560405160405180910390a45050565b6000818152600260205260408120546001600160a01b03166111bd5760405162461bcd60e51b815260206004820152602c60248201527f4552433732313a206f70657261746f7220717565727920666f72206e6f6e657860448201526b34b9ba32b73a103a37b5b2b760a11b606482015260840161063b565b60006111c883610be3565b9050806001600160a01b0316846001600160a01b0316148061120f57506001600160a01b0380821660009081526005602090815260408083209388168352929052205460ff165b806112335750836001600160a01b0316611228846106e9565b6001600160a01b0316145b949350505050565b826001600160a01b031661124e82610be3565b6001600160a01b0316146112b25760405162461bcd60e51b815260206004820152602560248201527f4552433732313a207472616e736665722066726f6d20696e636f72726563742060448201526437bbb732b960d91b606482015260840161063b565b6001600160a01b0382166113145760405162461bcd60e51b8152602060048201526024808201527f4552433732313a207472616e7366657220746f20746865207a65726f206164646044820152637265737360e01b606482015260840161063b565b61131f838383611679565b61132a6000826110d6565b6001600160a01b038316600090815260036020526040812080546001929061135390849061215b565b90915550506001600160a01b0382166000908152600360205260408120805460019290611381908490612110565b909155505060008181526002602052604080822080546001600160a01b0319166001600160a01b0386811691821790925591518493918716917fddf252ad1be2c89b69c2b068fc378daa952ba7f163c4a11628f55a4df523b3ef91a4505050565b600a80546001600160a01b038381166001600160a01b0319831681179093556040519116919082907f8be0079c531659141344cd1fd0a4f28419497f9722a3daafe3b4186f6b6457e090600090a35050565b610bdf828260405180602001604052806000815250611731565b816001600160a01b0316836001600160a01b031614156114b05760405162461bcd60e51b815260206004820152601960248201527f4552433732313a20617070726f766520746f2063616c6c657200000000000000604482015260640161063b565b6001600160a01b03838116600081815260056020908152604080832094871680845294825291829020805460ff191686151590811790915591519182527f17307eab39ab6107e8899845ad3d59bd9653f200f220920489ca2b5937696c31910160405180910390a3505050565b61152884848461123b565b61153484848484611764565b610e3f5760405162461bcd60e51b815260040161063b90612038565b6060600b80546106669061219e565b6060816115835750506040805180820190915260018152600360fc1b602082015290565b8160005b81156115ad5780611597816121d9565b91506115a69050600a83612128565b9150611587565b60008167ffffffffffffffff8111156115d657634e487b7160e01b600052604160045260246000fd5b6040519080825280601f01601f191660200182016040528015611600576020820181803683370190505b5090505b84156112335761161560018361215b565b9150611622600a866121f4565b61162d906030612110565b60f81b81838151811061165057634e487b7160e01b600052603260045260246000fd5b60200101906001600160f81b031916908160001a905350611672600a86612128565b9450611604565b6001600160a01b0383166116d4576116cf81600880546000838152600960205260408120829055600182018355919091527ff3f7a9fe364faab93b216da50a3214154f22a0a2b415b23a84c8169e8b636ee30155565b6116f7565b816001600160a01b0316836001600160a01b0316146116f7576116f78382611871565b6001600160a01b03821661170e5761088f8161190e565b826001600160a01b0316826001600160a01b03161461088f5761088f82826119e7565b61173b8383611a2b565b6117486000848484611764565b61088f5760405162461bcd60e51b815260040161063b90612038565b60006001600160a01b0384163b1561186657604051630a85bd0160e11b81526001600160a01b0385169063150b7a02906117a8903390899088908890600401611fa4565b602060405180830381600087803b1580156117c257600080fd5b505af19250505080156117f2575060408051601f3d908101601f191682019092526117ef91810190611e3c565b60015b61184c573d808015611820576040519150601f19603f3d011682016040523d82523d6000602084013e611825565b606091505b5080516118445760405162461bcd60e51b815260040161063b90612038565b805181602001fd5b6001600160e01b031916630a85bd0160e11b149050611233565b506001949350505050565b6000600161187e84610c5a565b611888919061215b565b6000838152600760205260409020549091508082146118db576001600160a01b03841660009081526006602090815260408083208584528252808320548484528184208190558352600790915290208190555b5060009182526007602090815260408084208490556001600160a01b039094168352600681528383209183525290812055565b6008546000906119209060019061215b565b6000838152600960205260408120546008805493945090928490811061195657634e487b7160e01b600052603260045260246000fd5b90600052602060002001549050806008838154811061198557634e487b7160e01b600052603260045260246000fd5b60009182526020808320909101929092558281526009909152604080822084905585825281205560088054806119cb57634e487b7160e01b600052603160045260246000fd5b6001900381819060005260206000200160009055905550505050565b60006119f283610c5a565b6001600160a01b039093166000908152600660209081526040808320868452825280832085905593825260079052919091209190915550565b6001600160a01b038216611a815760405162461bcd60e51b815260206004820181905260248201527f4552433732313a206d696e7420746f20746865207a65726f2061646472657373604482015260640161063b565b6000818152600260205260409020546001600160a01b031615611ae65760405162461bcd60e51b815260206004820152601c60248201527f4552433732313a20746f6b656e20616c7265616479206d696e74656400000000604482015260640161063b565b611af260008383611679565b6001600160a01b0382166000908152600360205260408120805460019290611b1b908490612110565b909155505060008181526002602052604080822080546001600160a01b0319166001600160a01b03861690811790915590518392907fddf252ad1be2c89b69c2b068fc378daa952ba7f163c4a11628f55a4df523b3ef908290a45050565b828054611b859061219e565b90600052602060002090601f016020900481019282611ba75760008555611bed565b82601f10611bc057805160ff1916838001178555611bed565b82800160010185558215611bed579182015b82811115611bed578251825591602001919060010190611bd2565b50611bf9929150611bfd565b5090565b5b80821115611bf95760008155600101611bfe565b600067ffffffffffffffff80841115611c2d57611c2d612234565b604051601f8501601f19908116603f01168101908282118183101715611c5557611c55612234565b81604052809350858152868686011115611c6e57600080fd5b858560208301376000602087830101525050509392505050565b80356001600160a01b0381168114611c9f57600080fd5b919050565b80358015158114611c9f57600080fd5b600060208284031215611cc5578081fd5b610faa82611c88565b60008060408385031215611ce0578081fd5b611ce983611c88565b9150611cf760208401611c88565b90509250929050565b600080600060608486031215611d14578081fd5b611d1d84611c88565b9250611d2b60208501611c88565b9150604084013590509250925092565b60008060008060808587031215611d50578081fd5b611d5985611c88565b9350611d6760208601611c88565b925060408501359150606085013567ffffffffffffffff811115611d89578182fd5b8501601f81018713611d99578182fd5b611da887823560208401611c12565b91505092959194509250565b60008060408385031215611dc6578182fd5b611dcf83611c88565b9150611cf760208401611ca4565b60008060408385031215611def578182fd5b611df883611c88565b946020939093013593505050565b600060208284031215611e17578081fd5b610faa82611ca4565b600060208284031215611e31578081fd5b8135610faa8161224a565b600060208284031215611e4d578081fd5b8151610faa8161224a565b600060208284031215611e69578081fd5b813567ffffffffffffffff811115611e7f578182fd5b8201601f81018413611e8f578182fd5b61123384823560208401611c12565b600060208284031215611eaf578081fd5b5035919050565b60008151808452611ece816020860160208601612172565b601f01601f19169290920160200192915050565b600084516020611ef58285838a01612172565b855191840191611f088184848a01612172565b85549201918390600181811c9080831680611f2457607f831692505b858310811415611f4257634e487b7160e01b88526022600452602488fd5b808015611f565760018114611f6757611f93565b60ff19851688528388019550611f93565b60008b815260209020895b85811015611f8b5781548a820152908401908801611f72565b505083880195505b50939b9a5050505050505050505050565b6001600160a01b0385811682528416602082015260408101839052608060608201819052600090611fd790830184611eb6565b9695505050505050565b6020808252825182820181905260009190848201906040850190845b8181101561201957835183529284019291840191600101611ffd565b50909695505050505050565b602081526000610faa6020830184611eb6565b60208082526032908201527f4552433732313a207472616e7366657220746f206e6f6e20455243373231526560408201527131b2b4bb32b91034b6b83632b6b2b73a32b960711b606082015260800190565b6020808252818101527f4f776e61626c653a2063616c6c6572206973206e6f7420746865206f776e6572604082015260600190565b60208082526031908201527f4552433732313a207472616e736665722063616c6c6572206973206e6f74206f6040820152701ddb995c881b9bdc88185c1c1c9bdd9959607a1b606082015260800190565b6000821982111561212357612123612208565b500190565b6000826121375761213761221e565b500490565b600081600019048311821515161561215657612156612208565b500290565b60008282101561216d5761216d612208565b500390565b60005b8381101561218d578181015183820152602001612175565b83811115610e3f5750506000910152565b600181811c908216806121b257607f821691505b602082108114156121d357634e487b7160e01b600052602260045260246000fd5b50919050565b60006000198214156121ed576121ed612208565b5060010190565b6000826122035761220361221e565b500690565b634e487b7160e01b600052601160045260246000fd5b634e487b7160e01b600052601260045260246000fd5b634e487b7160e01b600052604160045260246000fd5b6001600160e01b0319811681146109f657600080fdfea2646970667358221220def734ed67baf414dbdcd9660889fa4ff54420d54796e73ffe0aae47c54088e264736f6c63430008040033",
  "linkReferences": {},
  "deployedLinkReferences": {}
}