{
  "_format": "hh-sol-artifact-1",
  "contractName": "E1NFT",
  "sourceName": "contracts/E1NFT.sol",
  "abi": [
    {
      "inputs": [
        {
          "internalType": "string",
          "name": "_name",
          "type": "string"
        },
        {
          "internalType": "string",
          "name": "_symbol",
          "type": "string"
        },
        {
          "internalType": "string",
          "name": "_initBaseURI",
          "type": "string"
        }
      ],
      "stateMutability": "nonpayable",
      "type": "constructor"
    },
    {
      "anonymous": false,
      "inputs": [
        {
          "indexed": true,
          "internalType": "address",
          "name": "owner",
          "type": "address"
        },
        {
          "indexed": true,
          "internalType": "address",
          "name": "approved",
          "type": "address"
        },
        {
          "indexed": true,
          "internalType": "uint256",
          "name": "tokenId",
          "type": "uint256"
        }
      ],
      "name": "Approval",
      "type": "event"
    },
    {
      "anonymous": false,
      "inputs": [
        {
          "indexed": true,
          "internalType": "address",
          "name": "owner",
          "type": "address"
        },
        {
          "indexed": true,
          "internalType": "address",
          "name": "operator",
          "type": "address"
        },
        {
          "indexed": false,
          "internalType": "bool",
          "name": "approved",
          "type": "bool"
        }
      ],
      "name": "ApprovalForAll",
      "type": "event"
    },
    {
      "anonymous": false,
      "inputs": [
        {
          "indexed": true,
          "internalType": "address",
          "name": "previousOwner",
          "type": "address"
        },
        {
          "indexed": true,
          "internalType": "address",
          "name": "newOwner",
          "type": "address"
        }
      ],
      "name": "OwnershipTransferred",
      "type": "event"
    },
    {
      "anonymous": false,
      "inputs": [
        {
          "indexed": true,
          "internalType": "address",
          "name": "from",
          "type": "address"
        },
        {
          "indexed": true,
          "internalType": "address",
          "name": "to",
          "type": "address"
        },
        {
          "indexed": true,
          "internalType": "uint256",
          "name": "tokenId",
          "type": "uint256"
        }
      ],
      "name": "Transfer",
      "type": "event"
    },
    {
      "inputs": [
        {
          "internalType": "address",
          "name": "to",
          "type": "address"
        },
        {
          "internalType": "uint256",
          "name": "tokenId",
          "type": "uint256"
        }
      ],
      "name": "approve",
      "outputs": [],
      "stateMutability": "nonpayable",
      "type": "function"
    },
    {
      "inputs": [
        {
          "internalType": "address",
          "name": "owner",
          "type": "address"
        }
      ],
      "name": "balanceOf",
      "outputs": [
        {
          "internalType": "uint256",
          "name": "",
          "type": "uint256"
        }
      ],
      "stateMutability": "view",
      "type": "function"
    },
    {
      "inputs": [],
      "name": "baseExtension",
      "outputs": [
        {
          "internalType": "string",
          "name": "",
          "type": "string"
        }
      ],
      "stateMutability": "view",
      "type": "function"
    },
    {
      "inputs": [],
      "name": "cost",
      "outputs": [
        {
          "internalType": "uint256",
          "name": "",
          "type": "uint256"
        }
      ],
      "stateMutability": "view",
      "type": "function"
    },
    {
      "inputs": [
        {
          "internalType": "uint256",
          "name": "tokenId",
          "type": "uint256"
        }
      ],
      "name": "getApproved",
      "outputs": [
        {
          "internalType": "address",
          "name": "",
          "type": "address"
        }
      ],
      "stateMutability": "view",
      "type": "function"
    },
    {
      "inputs": [
        {
          "internalType": "address",
          "name": "owner",
          "type": "address"
        },
        {
          "internalType": "address",
          "name": "operator",
          "type": "address"
        }
      ],
      "name": "isApprovedForAll",
      "outputs": [
        {
          "internalType": "bool",
          "name": "",
          "type": "bool"
        }
      ],
      "stateMutability": "view",
      "type": "function"
    },
    {
      "inputs": [],
      "name": "maxMintAmount",
      "outputs": [
        {
          "internalType": "uint256",
          "name": "",
          "type": "uint256"
        }
      ],
      "stateMutability": "view",
      "type": "function"
    },
    {
      "inputs": [],
      "name": "maxSupply",
      "outputs": [
        {
          "internalType": "uint256",
          "name": "",
          "type": "uint256"
        }
      ],
      "stateMutability": "view",
      "type": "function"
    },
    {
      "inputs": [
        {
          "internalType": "uint256",
          "name": "_mintAmount",
          "type": "uint256"
        }
      ],
      "name": "mint",
      "outputs": [],
      "stateMutability": "payable",
      "type": "function"
    },
    {
      "inputs": [],
      "name": "name",
      "outputs": [
        {
          "internalType": "string",
          "name": "",
          "type": "string"
        }
      ],
      "stateMutability": "view",
      "type": "function"
    },
    {
      "inputs": [],
      "name": "owner",
      "outputs": [
        {
          "internalType": "address",
          "name": "",
          "type": "address"
        }
      ],
      "stateMutability": "view",
      "type": "function"
    },
    {
      "inputs": [
        {
          "internalType": "uint256",
          "name": "tokenId",
          "type": "uint256"
        }
      ],
      "name": "ownerOf",
      "outputs": [
        {
          "internalType": "address",
          "name": "",
          "type": "address"
        }
      ],
      "stateMutability": "view",
      "type": "function"
    },
    {
      "inputs": [
        {
          "internalType": "bool",
          "name": "_state",
          "type": "bool"
        }
      ],
      "name": "pause",
      "outputs": [],
      "stateMutability": "nonpayable",
      "type": "function"
    },
    {
      "inputs": [],
      "name": "paused",
      "outputs": [
        {
          "internalType": "bool",
          "name": "",
          "type": "bool"
        }
      ],
      "stateMutability": "view",
      "type": "function"
    },
    {
      "inputs": [],
      "name": "renounceOwnership",
      "outputs": [],
      "stateMutability": "nonpayable",
      "type": "function"
    },
    {
      "inputs": [
        {
          "internalType": "address",
          "name": "from",
          "type": "address"
        },
        {
          "internalType": "address",
          "name": "to",
          "type": "address"
        },
        {
          "internalType": "uint256",
          "name": "tokenId",
          "type": "uint256"
        }
      ],
      "name": "safeTransferFrom",
      "outputs": [],
      "stateMutability": "nonpayable",
      "type": "function"
    },
    {
      "inputs": [
        {
          "internalType": "address",
          "name": "from",
          "type": "address"
        },
        {
          "internalType": "address",
          "name": "to",
          "type": "address"
        },
        {
          "internalType": "uint256",
          "name": "tokenId",
          "type": "uint256"
        },
        {
          "internalType": "bytes",
          "name": "_data",
          "type": "bytes"
        }
      ],
      "name": "safeTransferFrom",
      "outputs": [],
      "stateMutability": "nonpayable",
      "type": "function"
    },
    {
      "inputs": [
        {
          "internalType": "address",
          "name": "operator",
          "type": "address"
        },
        {
          "internalType": "bool",
          "name": "approved",
          "type": "bool"
        }
      ],
      "name": "setApprovalForAll",
      "outputs": [],
      "stateMutability": "nonpayable",
      "type": "function"
    },
    {
      "inputs": [
        {
          "internalType": "string",
          "name": "_newBaseExtension",
          "type": "string"
        }
      ],
      "name": "setBaseExtension",
      "outputs": [],
      "stateMutability": "nonpayable",
      "type": "function"
    },
    {
      "inputs": [
        {
          "internalType": "string",
          "name": "_newBaseURI",
          "type": "string"
        }
      ],
      "name": "setBaseURI",
      "outputs": [],
      "stateMutability": "nonpayable",
      "type": "function"
    },
    {
      "inputs": [
        {
          "internalType": "uint256",
          "name": "_newCost",
          "type": "uint256"
        }
      ],
      "name": "setCost",
      "outputs": [],
      "stateMutability": "nonpayable",
      "type": "function"
    },
    {
      "inputs": [
        {
          "internalType": "uint256",
          "name": "_newmaxMintAmount",
          "type": "uint256"
        }
      ],
      "name": "setmaxMintAmount",
      "outputs": [],
      "stateMutability": "nonpayable",
      "type": "function"
    },
    {
      "inputs": [
        {
          "internalType": "bytes4",
          "name": "interfaceId",
          "type": "bytes4"
        }
      ],
      "name": "supportsInterface",
      "outputs": [
        {
          "internalType": "bool",
          "name": "",
          "type": "bool"
        }
      ],
      "stateMutability": "view",
      "type": "function"
    },
    {
      "inputs": [],
      "name": "symbol",
      "outputs": [
        {
          "internalType": "string",
          "name": "",
          "type": "string"
        }
      ],
      "stateMutability": "view",
      "type": "function"
    },
    {
      "inputs": [
        {
          "internalType": "uint256",
          "name": "index",
          "type": "uint256"
        }
      ],
      "name": "tokenByIndex",
      "outputs": [
        {
          "internalType": "uint256",
          "name": "",
          "type": "uint256"
        }
      ],
      "stateMutability": "view",
      "type": "function"
    },
    {
      "inputs": [
        {
          "internalType": "address",
          "name": "owner",
          "type": "address"
        },
        {
          "internalType": "uint256",
          "name": "index",
          "type": "uint256"
        }
      ],
      "name": "tokenOfOwnerByIndex",
      "outputs": [
        {
          "internalType": "uint256",
          "name": "",
          "type": "uint256"
        }
      ],
      "stateMutability": "view",
      "type": "function"
    },
    {
      "inputs": [
        {
          "internalType": "uint256",
          "name": "tokenId",
          "type": "uint256"
        }
      ],
      "name": "tokenURI",
      "outputs": [
        {
          "internalType": "string",
          "name": "",
          "type": "string"
        }
      ],
      "stateMutability": "view",
      "type": "function"
    },
    {
      "inputs": [],
      "name": "totalSupply",
      "outputs": [
        {
          "internalType": "uint256",
          "name": "",
          "type": "uint256"
        }
      ],
      "stateMutability": "view",
      "type": "function"
    },
    {
      "inputs": [
        {
          "internalType": "address",
          "name": "from",
          "type": "address"
        },
        {
          "internalType": "address",
          "name": "to",
          "type": "address"
        },
        {
          "internalType": "uint256",
          "name": "tokenId",
          "type": "uint256"
        }
      ],
      "name": "transferFrom",
      "outputs": [],
      "stateMutability": "nonpayable",
      "type": "function"
    },
    {
      "inputs": [
        {
          "internalType": "address",
          "name": "newOwner",
          "type": "address"
        }
      ],
      "name": "transferOwnership",
      "outputs": [],
      "stateMutability": "nonpayable",
      "type": "function"
    },
    {
      "inputs": [
        {
          "internalType": "address",
          "name": "_owner",
          "type": "address"
        }
      ],
      "name": "walletOfOwner",
      "outputs": [
        {
          "internalType": "uint256[]",
          "name": "",
          "type": "uint256[]"
        }
      ],
      "stateMutability": "view",
      "type": "function"
    },
    {
      "inputs": [],
      "name": "withdraw",
      "outputs": [],
      "stateMutability": "payable",
      "type": "function"
    }
  ],
  "bytecode": "0x60a06040819052600060808190526200001b91600c916200090d565b506402540be400600d5560c8600e819055600f556010805460ff191690553480156200004657600080fd5b5060405162002f3c38038062002f3c833981016040819052620000699162000a73565b825183908390620000829060009060208501906200090d565b508051620000989060019060208401906200090d565b505050620000b5620000af620000d560201b60201c565b620000d9565b620000c0816200012b565b620000cc60c8620001a4565b50505062000c67565b3390565b600a80546001600160a01b038381166001600160a01b0319831681179093556040519116919082907f8be0079c531659141344cd1fd0a4f28419497f9722a3daafe3b4186f6b6457e090600090a35050565b600a546001600160a01b031633146200018b5760405162461bcd60e51b815260206004820181905260248201527f4f776e61626c653a2063616c6c6572206973206e6f7420746865206f776e657260448201526064015b60405180910390fd5b8051620001a090600b9060208401906200090d565b5050565b6000620001b060085490565b60105490915060ff1615620001c457600080fd5b60008211620001d257600080fd5b600f54821115620001e257600080fd5b600e54620001f1838362000b56565b1115620001fd57600080fd5b600a546001600160a01b031633146200022d5781600d5462000220919062000b71565b3410156200022d57600080fd5b60015b82811162000264576200024f3362000249838562000b56565b62000269565b806200025b8162000c1d565b91505062000230565b505050565b620001a08282604051806020016040528060008152506200028b60201b60201c565b620002978383620002fe565b620002a6600084848462000454565b620002645760405162461bcd60e51b8152602060048201526032602482015260008051602062002f1c83398151915260448201527131b2b4bb32b91034b6b83632b6b2b73a32b960711b606482015260840162000182565b6001600160a01b038216620003565760405162461bcd60e51b815260206004820181905260248201527f4552433732313a206d696e7420746f20746865207a65726f2061646472657373604482015260640162000182565b6000818152600260205260409020546001600160a01b031615620003bd5760405162461bcd60e51b815260206004820152601c60248201527f4552433732313a20746f6b656e20616c7265616479206d696e74656400000000604482015260640162000182565b620003cb60008383620005bd565b6001600160a01b0382166000908152600360205260408120805460019290620003f690849062000b56565b909155505060008181526002602052604080822080546001600160a01b0319166001600160a01b03861690811790915590518392907fddf252ad1be2c89b69c2b068fc378daa952ba7f163c4a11628f55a4df523b3ef908290a45050565b600062000475846001600160a01b03166200069960201b620010861760201c565b15620005b157604051630a85bd0160e11b81526001600160a01b0385169063150b7a0290620004af90339089908890889060040162000b00565b602060405180830381600087803b158015620004ca57600080fd5b505af1925050508015620004fd575060408051601f3d908101601f19168201909252620004fa9181019062000a42565b60015b62000596573d8080156200052e576040519150601f19603f3d011682016040523d82523d6000602084013e62000533565b606091505b5080516200058e5760405162461bcd60e51b8152602060048201526032602482015260008051602062002f1c83398151915260448201527131b2b4bb32b91034b6b83632b6b2b73a32b960711b606482015260840162000182565b805181602001fd5b6001600160e01b031916630a85bd0160e11b149050620005b5565b5060015b949350505050565b620005d58383836200026460201b6200088f1760201c565b6001600160a01b03831662000633576200062d81600880546000838152600960205260408120829055600182018355919091527ff3f7a9fe364faab93b216da50a3214154f22a0a2b415b23a84c8169e8b636ee30155565b62000659565b816001600160a01b0316836001600160a01b0316146200065957620006598382620006a8565b6001600160a01b0382166200067357620002648162000755565b826001600160a01b0316826001600160a01b031614620002645762000264828262000833565b6001600160a01b03163b151590565b60006001620006c2846200088460201b62000c5a1760201c565b620006ce919062000b93565b60008381526007602052604090205490915080821462000722576001600160a01b03841660009081526006602090815260408083208584528252808320548484528184208190558352600790915290208190555b5060009182526007602090815260408084208490556001600160a01b039094168352600681528383209183525290812055565b600854600090620007699060019062000b93565b60008381526009602052604081205460088054939450909284908110620007a057634e487b7160e01b600052603260045260246000fd5b906000526020600020015490508060088381548110620007d057634e487b7160e01b600052603260045260246000fd5b60009182526020808320909101929092558281526009909152604080822084905585825281205560088054806200081757634e487b7160e01b600052603160045260246000fd5b6001900381819060005260206000200160009055905550505050565b60006200084b836200088460201b62000c5a1760201c565b6001600160a01b039093166000908152600660209081526040808320868452825280832085905593825260079052919091209190915550565b60006001600160a01b038216620008f15760405162461bcd60e51b815260206004820152602a60248201527f4552433732313a2062616c616e636520717565727920666f7220746865207a65604482015269726f206164647265737360b01b606482015260840162000182565b506001600160a01b031660009081526003602052604090205490565b8280546200091b9062000be0565b90600052602060002090601f0160209004810192826200093f57600085556200098a565b82601f106200095a57805160ff19168380011785556200098a565b828001600101855582156200098a579182015b828111156200098a5782518255916020019190600101906200096d565b50620009989291506200099c565b5090565b5b808211156200099857600081556001016200099d565b600082601f830112620009c4578081fd5b81516001600160401b0380821115620009e157620009e162000c51565b604051601f8301601f19908116603f0116810190828211818310171562000a0c5762000a0c62000c51565b8160405283815286602085880101111562000a25578485fd5b62000a3884602083016020890162000bad565b9695505050505050565b60006020828403121562000a54578081fd5b81516001600160e01b03198116811462000a6c578182fd5b9392505050565b60008060006060848603121562000a88578182fd5b83516001600160401b038082111562000a9f578384fd5b62000aad87838801620009b3565b9450602086015191508082111562000ac3578384fd5b62000ad187838801620009b3565b9350604086015191508082111562000ae7578283fd5b5062000af686828701620009b3565b9150509250925092565b600060018060a01b03808716835280861660208401525083604083015260806060830152825180608084015262000b3f8160a085016020870162000bad565b601f01601f19169190910160a00195945050505050565b6000821982111562000b6c5762000b6c62000c3b565b500190565b600081600019048311821515161562000b8e5762000b8e62000c3b565b500290565b60008282101562000ba85762000ba862000c3b565b500390565b60005b8381101562000bca57818101518382015260200162000bb0565b8381111562000bda576000848401525b50505050565b600181811c9082168062000bf557607f821691505b6020821081141562000c1757634e487b7160e01b600052602260045260246000fd5b50919050565b600060001982141562000c345762000c3462000c3b565b5060010190565b634e487b7160e01b600052601160045260246000fd5b634e487b7160e01b600052604160045260246000fd5b6122a58062000c776000396000f3fe6080604052600436106101e35760003560e01c80635c975abb11610102578063a22cb46511610095578063d5abeb0111610064578063d5abeb0114610547578063da3ef23f1461055d578063e985e9c51461057d578063f2fde38b146105c657600080fd5b8063a22cb465146104d2578063b88d4fde146104f2578063c668286214610512578063c87b56dd1461052757600080fd5b80637f00c7a6116100d15780637f00c7a61461046c5780638da5cb5b1461048c57806395d89b41146104aa578063a0712d68146104bf57600080fd5b80635c975abb146103fd5780636352211e1461041757806370a0823114610437578063715018a61461045757600080fd5b806323b872dd1161017a578063438b630011610149578063438b63001461037057806344a0d68a1461039d5780634f6ccce7146103bd57806355f804b3146103dd57600080fd5b806323b872dd146103085780632f745c59146103285780633ccfd60b1461034857806342842e0e1461035057600080fd5b8063095ea7b3116101b6578063095ea7b31461029957806313faede6146102b957806318160ddd146102dd578063239c70ae146102f257600080fd5b806301ffc9a7146101e857806302329a291461021d57806306fdde031461023f578063081812fc14610261575b600080fd5b3480156101f457600080fd5b50610208610203366004611e2f565b6105e6565b60405190151581526020015b60405180910390f35b34801561022957600080fd5b5061023d610238366004611e15565b610611565b005b34801561024b57600080fd5b50610254610657565b6040516102149190612034565b34801561026d57600080fd5b5061028161027c366004611ead565b6106e9565b6040516001600160a01b039091168152602001610214565b3480156102a557600080fd5b5061023d6102b4366004611dec565b61077e565b3480156102c557600080fd5b506102cf600d5481565b604051908152602001610214565b3480156102e957600080fd5b506008546102cf565b3480156102fe57600080fd5b506102cf600f5481565b34801561031457600080fd5b5061023d610323366004611d0f565b610894565b34801561033457600080fd5b506102cf610343366004611dec565b6108c5565b61023d61095b565b34801561035c57600080fd5b5061023d61036b366004611d0f565b6109f9565b34801561037c57600080fd5b5061039061038b366004611cc3565b610a14565b6040516102149190611ff0565b3480156103a957600080fd5b5061023d6103b8366004611ead565b610ad2565b3480156103c957600080fd5b506102cf6103d8366004611ead565b610b01565b3480156103e957600080fd5b5061023d6103f8366004611e67565b610ba2565b34801561040957600080fd5b506010546102089060ff1681565b34801561042357600080fd5b50610281610432366004611ead565b610be3565b34801561044357600080fd5b506102cf610452366004611cc3565b610c5a565b34801561046357600080fd5b5061023d610ce1565b34801561047857600080fd5b5061023d610487366004611ead565b610d17565b34801561049857600080fd5b50600a546001600160a01b0316610281565b3480156104b657600080fd5b50610254610d46565b61023d6104cd366004611ead565b610d55565b3480156104de57600080fd5b5061023d6104ed366004611dc3565b610e02565b3480156104fe57600080fd5b5061023d61050d366004611d4a565b610e0d565b34801561051e57600080fd5b50610254610e45565b34801561053357600080fd5b50610254610542366004611ead565b610ed3565b34801561055357600080fd5b506102cf600e5481565b34801561056957600080fd5b5061023d610578366004611e67565b610fb1565b34801561058957600080fd5b50610208610598366004611cdd565b6001600160a01b03918216600090815260056020908152604080832093909416825291909152205460ff1690565b3480156105d257600080fd5b5061023d6105e1366004611cc3565b610fee565b60006001600160e01b0319821663780e9d6360e01b148061060b575061060b82611095565b92915050565b600a546001600160a01b031633146106445760405162461bcd60e51b815260040161063b90612099565b60405180910390fd5b6010805460ff1916911515919091179055565b606060008054610666906121ad565b80601f0160208091040260200160405190810160405280929190818152602001828054610692906121ad565b80156106df5780601f106106b4576101008083540402835291602001916106df565b820191906000526020600020905b8154815290600101906020018083116106c257829003601f168201915b5050505050905090565b6000818152600260205260408120546001600160a01b03166107625760405162461bcd60e51b815260206004820152602c60248201527f4552433732313a20617070726f76656420717565727920666f72206e6f6e657860448201526b34b9ba32b73a103a37b5b2b760a11b606482015260840161063b565b506000908152600460205260409020546001600160a01b031690565b600061078982610be3565b9050806001600160a01b0316836001600160a01b031614156107f75760405162461bcd60e51b815260206004820152602160248201527f4552433732313a20617070726f76616c20746f2063757272656e74206f776e656044820152603960f91b606482015260840161063b565b336001600160a01b038216148061081357506108138133610598565b6108855760405162461bcd60e51b815260206004820152603860248201527f4552433732313a20617070726f76652063616c6c6572206973206e6f74206f7760448201527f6e6572206e6f7220617070726f76656420666f7220616c6c0000000000000000606482015260840161063b565b61088f83836110e5565b505050565b61089e3382611153565b6108ba5760405162461bcd60e51b815260040161063b906120ce565b61088f83838361124a565b60006108d083610c5a565b82106109325760405162461bcd60e51b815260206004820152602b60248201527f455243373231456e756d657261626c653a206f776e657220696e646578206f7560448201526a74206f6620626f756e647360a81b606482015260840161063b565b506001600160a01b03919091166000908152600660209081526040808320938352929052205490565b600a546001600160a01b031633146109855760405162461bcd60e51b815260040161063b90612099565b6000610999600a546001600160a01b031690565b6001600160a01b03164760405160006040518083038185875af1925050503d80600081146109e3576040519150601f19603f3d011682016040523d82523d6000602084013e6109e8565b606091505b50509050806109f657600080fd5b50565b61088f83838360405180602001604052806000815250610e0d565b60606000610a2183610c5a565b905060008167ffffffffffffffff811115610a4c57634e487b7160e01b600052604160045260246000fd5b604051908082528060200260200182016040528015610a75578160200160208202803683370190505b50905060005b82811015610aca57610a8d85826108c5565b828281518110610aad57634e487b7160e01b600052603260045260246000fd5b602090810291909101015280610ac2816121e8565b915050610a7b565b509392505050565b600a546001600160a01b03163314610afc5760405162461bcd60e51b815260040161063b90612099565b600d55565b6000610b0c60085490565b8210610b6f5760405162461bcd60e51b815260206004820152602c60248201527f455243373231456e756d657261626c653a20676c6f62616c20696e646578206f60448201526b7574206f6620626f756e647360a01b606482015260840161063b565b60088281548110610b9057634e487b7160e01b600052603260045260246000fd5b90600052602060002001549050919050565b600a546001600160a01b03163314610bcc5760405162461bcd60e51b815260040161063b90612099565b8051610bdf90600b906020840190611b88565b5050565b6000818152600260205260408120546001600160a01b03168061060b5760405162461bcd60e51b815260206004820152602960248201527f4552433732313a206f776e657220717565727920666f72206e6f6e657869737460448201526832b73a103a37b5b2b760b91b606482015260840161063b565b60006001600160a01b038216610cc55760405162461bcd60e51b815260206004820152602a60248201527f4552433732313a2062616c616e636520717565727920666f7220746865207a65604482015269726f206164647265737360b01b606482015260840161063b565b506001600160a01b031660009081526003602052604090205490565b600a546001600160a01b03163314610d0b5760405162461bcd60e51b815260040161063b90612099565b610d1560006113f1565b565b600a546001600160a01b03163314610d415760405162461bcd60e51b815260040161063b90612099565b600f55565b606060018054610666906121ad565b6000610d6060085490565b60105490915060ff1615610d7357600080fd5b60008211610d8057600080fd5b600f54821115610d8f57600080fd5b600e54610d9c838361211f565b1115610da757600080fd5b600a546001600160a01b03163314610dd35781600d54610dc7919061214b565b341015610dd357600080fd5b60015b82811161088f57610df033610deb838561211f565b611443565b80610dfa816121e8565b915050610dd6565b610bdf33838361145d565b610e173383611153565b610e335760405162461bcd60e51b815260040161063b906120ce565b610e3f8484848461152c565b50505050565b600c8054610e52906121ad565b80601f0160208091040260200160405190810160405280929190818152602001828054610e7e906121ad565b8015610ecb5780601f10610ea057610100808354040283529160200191610ecb565b820191906000526020600020905b815481529060010190602001808311610eae57829003601f168201915b505050505081565b6000818152600260205260409020546060906001600160a01b0316610f525760405162461bcd60e51b815260206004820152602f60248201527f4552433732314d657461646174613a2055524920717565727920666f72206e6f60448201526e3732bc34b9ba32b73a103a37b5b2b760891b606482015260840161063b565b6000610f5c61155f565b90506000815111610f7c5760405180602001604052806000815250610faa565b80610f868461156e565b600c604051602001610f9a93929190611ef1565b6040516020818303038152906040525b9392505050565b600a546001600160a01b03163314610fdb5760405162461bcd60e51b815260040161063b90612099565b8051610bdf90600c906020840190611b88565b600a546001600160a01b031633146110185760405162461bcd60e51b815260040161063b90612099565b6001600160a01b03811661107d5760405162461bcd60e51b815260206004820152602660248201527f4f776e61626c653a206e6577206f776e657220697320746865207a65726f206160448201526564647265737360d01b606482015260840161063b565b6109f6816113f1565b6001600160a01b03163b151590565b60006001600160e01b031982166380ac58cd60e01b14806110c657506001600160e01b03198216635b5e139f60e01b145b8061060b57506301ffc9a760e01b6001600160e01b031983161461060b565b600081815260046020526040902080546001600160a01b0319166001600160a01b038416908117909155819061111a82610be3565b6001600160a01b03167f8c5be1e5ebec7d5bd14f71427d1e84f3dd0314c0f7b2291e5b200ac8c7c3b92560405160405180910390a45050565b6000818152600260205260408120546001600160a01b03166111cc5760405162461bcd60e51b815260206004820152602c60248201527f4552433732313a206f70657261746f7220717565727920666f72206e6f6e657860448201526b34b9ba32b73a103a37b5b2b760a11b606482015260840161063b565b60006111d783610be3565b9050806001600160a01b0316846001600160a01b0316148061121e57506001600160a01b0380821660009081526005602090815260408083209388168352929052205460ff165b806112425750836001600160a01b0316611237846106e9565b6001600160a01b0316145b949350505050565b826001600160a01b031661125d82610be3565b6001600160a01b0316146112c15760405162461bcd60e51b815260206004820152602560248201527f4552433732313a207472616e736665722066726f6d20696e636f72726563742060448201526437bbb732b960d91b606482015260840161063b565b6001600160a01b0382166113235760405162461bcd60e51b8152602060048201526024808201527f4552433732313a207472616e7366657220746f20746865207a65726f206164646044820152637265737360e01b606482015260840161063b565b61132e838383611688565b6113396000826110e5565b6001600160a01b038316600090815260036020526040812080546001929061136290849061216a565b90915550506001600160a01b038216600090815260036020526040812080546001929061139090849061211f565b909155505060008181526002602052604080822080546001600160a01b0319166001600160a01b0386811691821790925591518493918716917fddf252ad1be2c89b69c2b068fc378daa952ba7f163c4a11628f55a4df523b3ef91a4505050565b600a80546001600160a01b038381166001600160a01b0319831681179093556040519116919082907f8be0079c531659141344cd1fd0a4f28419497f9722a3daafe3b4186f6b6457e090600090a35050565b610bdf828260405180602001604052806000815250611740565b816001600160a01b0316836001600160a01b031614156114bf5760405162461bcd60e51b815260206004820152601960248201527f4552433732313a20617070726f766520746f2063616c6c657200000000000000604482015260640161063b565b6001600160a01b03838116600081815260056020908152604080832094871680845294825291829020805460ff191686151590811790915591519182527f17307eab39ab6107e8899845ad3d59bd9653f200f220920489ca2b5937696c31910160405180910390a3505050565b61153784848461124a565b61154384848484611773565b610e3f5760405162461bcd60e51b815260040161063b90612047565b6060600b8054610666906121ad565b6060816115925750506040805180820190915260018152600360fc1b602082015290565b8160005b81156115bc57806115a6816121e8565b91506115b59050600a83612137565b9150611596565b60008167ffffffffffffffff8111156115e557634e487b7160e01b600052604160045260246000fd5b6040519080825280601f01601f19166020018201604052801561160f576020820181803683370190505b5090505b84156112425761162460018361216a565b9150611631600a86612203565b61163c90603061211f565b60f81b81838151811061165f57634e487b7160e01b600052603260045260246000fd5b60200101906001600160f81b031916908160001a905350611681600a86612137565b9450611613565b6001600160a01b0383166116e3576116de81600880546000838152600960205260408120829055600182018355919091527ff3f7a9fe364faab93b216da50a3214154f22a0a2b415b23a84c8169e8b636ee30155565b611706565b816001600160a01b0316836001600160a01b031614611706576117068382611880565b6001600160a01b03821661171d5761088f8161191d565b826001600160a01b0316826001600160a01b03161461088f5761088f82826119f6565b61174a8383611a3a565b6117576000848484611773565b61088f5760405162461bcd60e51b815260040161063b90612047565b60006001600160a01b0384163b1561187557604051630a85bd0160e11b81526001600160a01b0385169063150b7a02906117b7903390899088908890600401611fb3565b602060405180830381600087803b1580156117d157600080fd5b505af1925050508015611801575060408051601f3d908101601f191682019092526117fe91810190611e4b565b60015b61185b573d80801561182f576040519150601f19603f3d011682016040523d82523d6000602084013e611834565b606091505b5080516118535760405162461bcd60e51b815260040161063b90612047565b805181602001fd5b6001600160e01b031916630a85bd0160e11b149050611242565b506001949350505050565b6000600161188d84610c5a565b611897919061216a565b6000838152600760205260409020549091508082146118ea576001600160a01b03841660009081526006602090815260408083208584528252808320548484528184208190558352600790915290208190555b5060009182526007602090815260408084208490556001600160a01b039094168352600681528383209183525290812055565b60085460009061192f9060019061216a565b6000838152600960205260408120546008805493945090928490811061196557634e487b7160e01b600052603260045260246000fd5b90600052602060002001549050806008838154811061199457634e487b7160e01b600052603260045260246000fd5b60009182526020808320909101929092558281526009909152604080822084905585825281205560088054806119da57634e487b7160e01b600052603160045260246000fd5b6001900381819060005260206000200160009055905550505050565b6000611a0183610c5a565b6001600160a01b039093166000908152600660209081526040808320868452825280832085905593825260079052919091209190915550565b6001600160a01b038216611a905760405162461bcd60e51b815260206004820181905260248201527f4552433732313a206d696e7420746f20746865207a65726f2061646472657373604482015260640161063b565b6000818152600260205260409020546001600160a01b031615611af55760405162461bcd60e51b815260206004820152601c60248201527f4552433732313a20746f6b656e20616c7265616479206d696e74656400000000604482015260640161063b565b611b0160008383611688565b6001600160a01b0382166000908152600360205260408120805460019290611b2a90849061211f565b909155505060008181526002602052604080822080546001600160a01b0319166001600160a01b03861690811790915590518392907fddf252ad1be2c89b69c2b068fc378daa952ba7f163c4a11628f55a4df523b3ef908290a45050565b828054611b94906121ad565b90600052602060002090601f016020900481019282611bb65760008555611bfc565b82601f10611bcf57805160ff1916838001178555611bfc565b82800160010185558215611bfc579182015b82811115611bfc578251825591602001919060010190611be1565b50611c08929150611c0c565b5090565b5b80821115611c085760008155600101611c0d565b600067ffffffffffffffff80841115611c3c57611c3c612243565b604051601f8501601f19908116603f01168101908282118183101715611c6457611c64612243565b81604052809350858152868686011115611c7d57600080fd5b858560208301376000602087830101525050509392505050565b80356001600160a01b0381168114611cae57600080fd5b919050565b80358015158114611cae57600080fd5b600060208284031215611cd4578081fd5b610faa82611c97565b60008060408385031215611cef578081fd5b611cf883611c97565b9150611d0660208401611c97565b90509250929050565b600080600060608486031215611d23578081fd5b611d2c84611c97565b9250611d3a60208501611c97565b9150604084013590509250925092565b60008060008060808587031215611d5f578081fd5b611d6885611c97565b9350611d7660208601611c97565b925060408501359150606085013567ffffffffffffffff811115611d98578182fd5b8501601f81018713611da8578182fd5b611db787823560208401611c21565b91505092959194509250565b60008060408385031215611dd5578182fd5b611dde83611c97565b9150611d0660208401611cb3565b60008060408385031215611dfe578182fd5b611e0783611c97565b946020939093013593505050565b600060208284031215611e26578081fd5b610faa82611cb3565b600060208284031215611e40578081fd5b8135610faa81612259565b600060208284031215611e5c578081fd5b8151610faa81612259565b600060208284031215611e78578081fd5b813567ffffffffffffffff811115611e8e578182fd5b8201601f81018413611e9e578182fd5b61124284823560208401611c21565b600060208284031215611ebe578081fd5b5035919050565b60008151808452611edd816020860160208601612181565b601f01601f19169290920160200192915050565b600084516020611f048285838a01612181565b855191840191611f178184848a01612181565b85549201918390600181811c9080831680611f3357607f831692505b858310811415611f5157634e487b7160e01b88526022600452602488fd5b808015611f655760018114611f7657611fa2565b60ff19851688528388019550611fa2565b60008b815260209020895b85811015611f9a5781548a820152908401908801611f81565b505083880195505b50939b9a5050505050505050505050565b6001600160a01b0385811682528416602082015260408101839052608060608201819052600090611fe690830184611ec5565b9695505050505050565b6020808252825182820181905260009190848201906040850190845b818110156120285783518352928401929184019160010161200c565b50909695505050505050565b602081526000610faa6020830184611ec5565b60208082526032908201527f4552433732313a207472616e7366657220746f206e6f6e20455243373231526560408201527131b2b4bb32b91034b6b83632b6b2b73a32b960711b606082015260800190565b6020808252818101527f4f776e61626c653a2063616c6c6572206973206e6f7420746865206f776e6572604082015260600190565b60208082526031908201527f4552433732313a207472616e736665722063616c6c6572206973206e6f74206f6040820152701ddb995c881b9bdc88185c1c1c9bdd9959607a1b606082015260800190565b6000821982111561213257612132612217565b500190565b6000826121465761214661222d565b500490565b600081600019048311821515161561216557612165612217565b500290565b60008282101561217c5761217c612217565b500390565b60005b8381101561219c578181015183820152602001612184565b83811115610e3f5750506000910152565b600181811c908216806121c157607f821691505b602082108114156121e257634e487b7160e01b600052602260045260246000fd5b50919050565b60006000198214156121fc576121fc612217565b5060010190565b6000826122125761221261222d565b500690565b634e487b7160e01b600052601160045260246000fd5b634e487b7160e01b600052601260045260246000fd5b634e487b7160e01b600052604160045260246000fd5b6001600160e01b0319811681146109f657600080fdfea264697066735822122035f4299179b29a39b855151140f38c650266a149f5db52648b8da308a88de69c64736f6c634300080400334552433732313a207472616e7366657220746f206e6f6e204552433732315265",
  "linkReferences": {},
  "deployedLinkReferences": {}
}